{
  "_format": "hh-sol-artifact-1",
  "contractName": "KiutSoulbound",
  "sourceName": "contracts/KiutSoulbound.sol",
  "abi": [
    {
      "inputs": [
        {
          "internalType": "address",
          "name": "_minterSigner",
          "type": "address"
        },
        {
          "internalType": "address",
          "name": "_feeRecipient",
          "type": "address"
        },
        {
          "internalType": "uint256",
          "name": "_mintFee",
          "type": "uint256"
        }
      ],
      "stateMutability": "nonpayable",
      "type": "constructor"
    },
    {
      "inputs": [],
      "name": "AlreadyMinted",
      "type": "error"
    },
    {
      "inputs": [],
      "name": "ECDSAInvalidSignature",
      "type": "error"
    },
    {
      "inputs": [
        {
          "internalType": "uint256",
          "name": "length",
          "type": "uint256"
        }
      ],
      "name": "ECDSAInvalidSignatureLength",
      "type": "error"
    },
    {
      "inputs": [
        {
          "internalType": "bytes32",
          "name": "s",
          "type": "bytes32"
        }
      ],
      "name": "ECDSAInvalidSignatureS",
      "type": "error"
    },
    {
      "inputs": [
        {
          "internalType": "address",
          "name": "sender",
          "type": "address"
        },
        {
          "internalType": "uint256",
          "name": "tokenId",
          "type": "uint256"
        },
        {
          "internalType": "address",
          "name": "owner",
          "type": "address"
        }
      ],
      "name": "ERC721IncorrectOwner",
      "type": "error"
    },
    {
      "inputs": [
        {
          "internalType": "address",
          "name": "operator",
          "type": "address"
        },
        {
          "internalType": "uint256",
          "name": "tokenId",
          "type": "uint256"
        }
      ],
      "name": "ERC721InsufficientApproval",
      "type": "error"
    },
    {
      "inputs": [
        {
          "internalType": "address",
          "name": "approver",
          "type": "address"
        }
      ],
      "name": "ERC721InvalidApprover",
      "type": "error"
    },
    {
      "inputs": [
        {
          "internalType": "address",
          "name": "operator",
          "type": "address"
        }
      ],
      "name": "ERC721InvalidOperator",
      "type": "error"
    },
    {
      "inputs": [
        {
          "internalType": "address",
          "name": "owner",
          "type": "address"
        }
      ],
      "name": "ERC721InvalidOwner",
      "type": "error"
    },
    {
      "inputs": [
        {
          "internalType": "address",
          "name": "receiver",
          "type": "address"
        }
      ],
      "name": "ERC721InvalidReceiver",
      "type": "error"
    },
    {
      "inputs": [
        {
          "internalType": "address",
          "name": "sender",
          "type": "address"
        }
      ],
      "name": "ERC721InvalidSender",
      "type": "error"
    },
    {
      "inputs": [
        {
          "internalType": "uint256",
          "name": "tokenId",
          "type": "uint256"
        }
      ],
      "name": "ERC721NonexistentToken",
      "type": "error"
    },
    {
      "inputs": [],
      "name": "FeeTransferFailed",
      "type": "error"
    },
    {
      "inputs": [],
      "name": "InsufficientFee",
      "type": "error"
    },
    {
      "inputs": [],
      "name": "InvalidSignature",
      "type": "error"
    },
    {
      "inputs": [],
      "name": "NonceAlreadyUsed",
      "type": "error"
    },
    {
      "inputs": [
        {
          "internalType": "address",
          "name": "owner",
          "type": "address"
        }
      ],
      "name": "OwnableInvalidOwner",
      "type": "error"
    },
    {
      "inputs": [
        {
          "internalType": "address",
          "name": "account",
          "type": "address"
        }
      ],
      "name": "OwnableUnauthorizedAccount",
      "type": "error"
    },
    {
      "inputs": [],
      "name": "TransferNotAllowed",
      "type": "error"
    },
    {
      "anonymous": false,
      "inputs": [
        {
          "indexed": true,
          "internalType": "address",
          "name": "owner",
          "type": "address"
        },
        {
          "indexed": true,
          "internalType": "address",
          "name": "approved",
          "type": "address"
        },
        {
          "indexed": true,
          "internalType": "uint256",
          "name": "tokenId",
          "type": "uint256"
        }
      ],
      "name": "Approval",
      "type": "event"
    },
    {
      "anonymous": false,
      "inputs": [
        {
          "indexed": true,
          "internalType": "address",
          "name": "owner",
          "type": "address"
        },
        {
          "indexed": true,
          "internalType": "address",
          "name": "operator",
          "type": "address"
        },
        {
          "indexed": false,
          "internalType": "bool",
          "name": "approved",
          "type": "bool"
        }
      ],
      "name": "ApprovalForAll",
      "type": "event"
    },
    {
      "anonymous": false,
      "inputs": [
        {
          "indexed": false,
          "internalType": "address",
          "name": "newRecipient",
          "type": "address"
        }
      ],
      "name": "FeeRecipientUpdated",
      "type": "event"
    },
    {
      "anonymous": false,
      "inputs": [
        {
          "indexed": false,
          "internalType": "uint256",
          "name": "newFee",
          "type": "uint256"
        }
      ],
      "name": "MintFeeUpdated",
      "type": "event"
    },
    {
      "anonymous": false,
      "inputs": [
        {
          "indexed": true,
          "internalType": "address",
          "name": "to",
          "type": "address"
        },
        {
          "indexed": true,
          "internalType": "uint256",
          "name": "tokenId",
          "type": "uint256"
        }
      ],
      "name": "Minted",
      "type": "event"
    },
    {
      "anonymous": false,
      "inputs": [
        {
          "indexed": false,
          "internalType": "address",
          "name": "newSigner",
          "type": "address"
        }
      ],
      "name": "MinterSignerUpdated",
      "type": "event"
    },
    {
      "anonymous": false,
      "inputs": [
        {
          "indexed": true,
          "internalType": "address",
          "name": "previousOwner",
          "type": "address"
        },
        {
          "indexed": true,
          "internalType": "address",
          "name": "newOwner",
          "type": "address"
        }
      ],
      "name": "OwnershipTransferred",
      "type": "event"
    },
    {
      "anonymous": false,
      "inputs": [
        {
          "indexed": true,
          "internalType": "address",
          "name": "from",
          "type": "address"
        },
        {
          "indexed": true,
          "internalType": "address",
          "name": "to",
          "type": "address"
        },
        {
          "indexed": true,
          "internalType": "uint256",
          "name": "tokenId",
          "type": "uint256"
        }
      ],
      "name": "Transfer",
      "type": "event"
    },
    {
      "inputs": [
        {
          "internalType": "address",
          "name": "to",
          "type": "address"
        },
        {
          "internalType": "uint256",
          "name": "tokenId",
          "type": "uint256"
        }
      ],
      "name": "approve",
      "outputs": [],
      "stateMutability": "nonpayable",
      "type": "function"
    },
    {
      "inputs": [
        {
          "internalType": "address",
          "name": "owner",
          "type": "address"
        }
      ],
      "name": "balanceOf",
      "outputs": [
        {
          "internalType": "uint256",
          "name": "",
          "type": "uint256"
        }
      ],
      "stateMutability": "view",
      "type": "function"
    },
    {
      "inputs": [],
      "name": "feeRecipient",
      "outputs": [
        {
          "internalType": "address",
          "name": "",
          "type": "address"
        }
      ],
      "stateMutability": "view",
      "type": "function"
    },
    {
      "inputs": [
        {
          "internalType": "uint256",
          "name": "tokenId",
          "type": "uint256"
        }
      ],
      "name": "getApproved",
      "outputs": [
        {
          "internalType": "address",
          "name": "",
          "type": "address"
        }
      ],
      "stateMutability": "view",
      "type": "function"
    },
    {
      "inputs": [
        {
          "internalType": "address",
          "name": "",
          "type": "address"
        }
      ],
      "name": "hasMinted",
      "outputs": [
        {
          "internalType": "bool",
          "name": "",
          "type": "bool"
        }
      ],
      "stateMutability": "view",
      "type": "function"
    },
    {
      "inputs": [
        {
          "internalType": "address",
          "name": "owner",
          "type": "address"
        },
        {
          "internalType": "address",
          "name": "operator",
          "type": "address"
        }
      ],
      "name": "isApprovedForAll",
      "outputs": [
        {
          "internalType": "bool",
          "name": "",
          "type": "bool"
        }
      ],
      "stateMutability": "view",
      "type": "function"
    },
    {
      "inputs": [
        {
          "internalType": "bytes32",
          "name": "nonce",
          "type": "bytes32"
        },
        {
          "internalType": "bytes",
          "name": "signature",
          "type": "bytes"
        }
      ],
      "name": "mint",
      "outputs": [],
      "stateMutability": "payable",
      "type": "function"
    },
    {
      "inputs": [],
      "name": "mintFee",
      "outputs": [
        {
          "internalType": "uint256",
          "name": "",
          "type": "uint256"
        }
      ],
      "stateMutability": "view",
      "type": "function"
    },
    {
      "inputs": [],
      "name": "minterSigner",
      "outputs": [
        {
          "internalType": "address",
          "name": "",
          "type": "address"
        }
      ],
      "stateMutability": "view",
      "type": "function"
    },
    {
      "inputs": [],
      "name": "name",
      "outputs": [
        {
          "internalType": "string",
          "name": "",
          "type": "string"
        }
      ],
      "stateMutability": "view",
      "type": "function"
    },
    {
      "inputs": [],
      "name": "owner",
      "outputs": [
        {
          "internalType": "address",
          "name": "",
          "type": "address"
        }
      ],
      "stateMutability": "view",
      "type": "function"
    },
    {
      "inputs": [
        {
          "internalType": "uint256",
          "name": "tokenId",
          "type": "uint256"
        }
      ],
      "name": "ownerOf",
      "outputs": [
        {
          "internalType": "address",
          "name": "",
          "type": "address"
        }
      ],
      "stateMutability": "view",
      "type": "function"
    },
    {
      "inputs": [],
      "name": "renounceOwnership",
      "outputs": [],
      "stateMutability": "nonpayable",
      "type": "function"
    },
    {
      "inputs": [
        {
          "internalType": "address",
          "name": "from",
          "type": "address"
        },
        {
          "internalType": "address",
          "name": "to",
          "type": "address"
        },
        {
          "internalType": "uint256",
          "name": "tokenId",
          "type": "uint256"
        }
      ],
      "name": "safeTransferFrom",
      "outputs": [],
      "stateMutability": "nonpayable",
      "type": "function"
    },
    {
      "inputs": [
        {
          "internalType": "address",
          "name": "from",
          "type": "address"
        },
        {
          "internalType": "address",
          "name": "to",
          "type": "address"
        },
        {
          "internalType": "uint256",
          "name": "tokenId",
          "type": "uint256"
        },
        {
          "internalType": "bytes",
          "name": "data",
          "type": "bytes"
        }
      ],
      "name": "safeTransferFrom",
      "outputs": [],
      "stateMutability": "nonpayable",
      "type": "function"
    },
    {
      "inputs": [
        {
          "internalType": "address",
          "name": "operator",
          "type": "address"
        },
        {
          "internalType": "bool",
          "name": "approved",
          "type": "bool"
        }
      ],
      "name": "setApprovalForAll",
      "outputs": [],
      "stateMutability": "nonpayable",
      "type": "function"
    },
    {
      "inputs": [
        {
          "internalType": "address",
          "name": "_feeRecipient",
          "type": "address"
        }
      ],
      "name": "setFeeRecipient",
      "outputs": [],
      "stateMutability": "nonpayable",
      "type": "function"
    },
    {
      "inputs": [
        {
          "internalType": "uint256",
          "name": "_mintFee",
          "type": "uint256"
        }
      ],
      "name": "setMintFee",
      "outputs": [],
      "stateMutability": "nonpayable",
      "type": "function"
    },
    {
      "inputs": [
        {
          "internalType": "address",
          "name": "_minterSigner",
          "type": "address"
        }
      ],
      "name": "setMinterSigner",
      "outputs": [],
      "stateMutability": "nonpayable",
      "type": "function"
    },
    {
      "inputs": [
        {
          "internalType": "bytes4",
          "name": "interfaceId",
          "type": "bytes4"
        }
      ],
      "name": "supportsInterface",
      "outputs": [
        {
          "internalType": "bool",
          "name": "",
          "type": "bool"
        }
      ],
      "stateMutability": "view",
      "type": "function"
    },
    {
      "inputs": [],
      "name": "symbol",
      "outputs": [
        {
          "internalType": "string",
          "name": "",
          "type": "string"
        }
      ],
      "stateMutability": "view",
      "type": "function"
    },
    {
      "inputs": [
        {
          "internalType": "uint256",
          "name": "tokenId",
          "type": "uint256"
        }
      ],
      "name": "tokenURI",
      "outputs": [
        {
          "internalType": "string",
          "name": "",
          "type": "string"
        }
      ],
      "stateMutability": "view",
      "type": "function"
    },
    {
      "inputs": [
        {
          "internalType": "address",
          "name": "from",
          "type": "address"
        },
        {
          "internalType": "address",
          "name": "to",
          "type": "address"
        },
        {
          "internalType": "uint256",
          "name": "tokenId",
          "type": "uint256"
        }
      ],
      "name": "transferFrom",
      "outputs": [],
      "stateMutability": "nonpayable",
      "type": "function"
    },
    {
      "inputs": [
        {
          "internalType": "address",
          "name": "newOwner",
          "type": "address"
        }
      ],
      "name": "transferOwnership",
      "outputs": [],
      "stateMutability": "nonpayable",
      "type": "function"
    },
    {
      "inputs": [
        {
          "internalType": "bytes32",
          "name": "",
          "type": "bytes32"
        }
      ],
      "name": "usedNonces",
      "outputs": [
        {
          "internalType": "bool",
          "name": "",
          "type": "bool"
        }
      ],
      "stateMutability": "view",
      "type": "function"
    }
  ],
  "bytecode": "0x60806040526001600755348015610014575f5ffd5b50604051611bfe380380611bfe83398101604081905261003391610180565b336040518060400160405280601481526020017f4b49555420536f756c626f756e6420546f6b656e0000000000000000000000008152506040518060400160405280600481526020016312d2555560e21b815250815f90816100959190610251565b5060016100a28282610251565b5050506001600160a01b0381166100d257604051631e4fbdf760e01b81525f600482015260240160405180910390fd5b6100db81610114565b50600880546001600160a01b039485166001600160a01b0319918216179091556009805493909416921691909117909155600a5561030b565b600680546001600160a01b038381166001600160a01b0319831681179093556040519116919082907f8be0079c531659141344cd1fd0a4f28419497f9722a3daafe3b4186f6b6457e0905f90a35050565b80516001600160a01b038116811461017b575f5ffd5b919050565b5f5f5f60608486031215610192575f5ffd5b61019b84610165565b92506101a960208501610165565b9150604084015190509250925092565b634e487b7160e01b5f52604160045260245ffd5b600181811c908216806101e157607f821691505b6020821081036101ff57634e487b7160e01b5f52602260045260245ffd5b50919050565b601f82111561024c57805f5260205f20601f840160051c8101602085101561022a5750805b601f840160051c820191505b81811015610249575f8155600101610236565b50505b505050565b81516001600160401b0381111561026a5761026a6101b9565b61027e8161027884546101cd565b84610205565b6020601f8211600181146102b0575f83156102995750848201515b5f19600385901b1c1916600184901b178455610249565b5f84815260208120601f198516915b828110156102df57878501518255602094850194600190920191016102bf565b50848210156102fc57868401515f19600387901b60f8161c191681555b50505050600190811b01905550565b6118e6806103185f395ff3fe608060405260043610610161575f3560e01c8063715018a6116100cd578063c87b56dd11610087578063e985e9c511610062578063e985e9c514610410578063eddd0d9c1461042f578063f2fde38b1461044e578063feb617241461046d575f5ffd5b8063c87b56dd146103b3578063dd99af19146103d2578063e74b981b146103f1575f5ffd5b8063715018a61461031d5780638da5cb5b1461033157806395d89b411461034e578063a22cb46514610362578063acd379cc14610381578063b88d4fde14610394575f5ffd5b806338e21cce1161011e57806338e21cce1461025457806342842e0e1461028257806346904840146102a15780634baa7356146102c05780636352211e146102df57806370a08231146102fe575f5ffd5b806301ffc9a71461016557806306fdde0314610199578063081812fc146101ba578063095ea7b3146101f157806313966db51461021257806323b872dd14610235575b5f5ffd5b348015610170575f5ffd5b5061018461017f3660046114c9565b61049b565b60405190151581526020015b60405180910390f35b3480156101a4575f5ffd5b506101ad6104ec565b6040516101909190611519565b3480156101c5575f5ffd5b506101d96101d436600461152b565b61057b565b6040516001600160a01b039091168152602001610190565b3480156101fc575f5ffd5b5061021061020b36600461155d565b6105a2565b005b34801561021d575f5ffd5b50610227600a5481565b604051908152602001610190565b348015610240575f5ffd5b5061021061024f366004611585565b6105b1565b34801561025f575f5ffd5b5061018461026e3660046115bf565b600b6020525f908152604090205460ff1681565b34801561028d575f5ffd5b5061021061029c366004611585565b61063f565b3480156102ac575f5ffd5b506009546101d9906001600160a01b031681565b3480156102cb575f5ffd5b506008546101d9906001600160a01b031681565b3480156102ea575f5ffd5b506101d96102f936600461152b565b61065e565b348015610309575f5ffd5b506102276103183660046115bf565b610668565b348015610328575f5ffd5b506102106106ad565b34801561033c575f5ffd5b506006546001600160a01b03166101d9565b348015610359575f5ffd5b506101ad6106c0565b34801561036d575f5ffd5b5061021061037c3660046115d8565b6106cf565b61021061038f366004611611565b6106da565b34801561039f575f5ffd5b506102106103ae36600461169c565b61094e565b3480156103be575f5ffd5b506101ad6103cd36600461152b565b610966565b3480156103dd575f5ffd5b506102106103ec3660046115bf565b6109a1565b3480156103fc575f5ffd5b5061021061040b3660046115bf565b6109fe565b34801561041b575f5ffd5b5061018461042a366004611779565b610a54565b34801561043a575f5ffd5b5061021061044936600461152b565b610a81565b348015610459575f5ffd5b506102106104683660046115bf565b610abe565b348015610478575f5ffd5b5061018461048736600461152b565b600c6020525f908152604090205460ff1681565b5f6001600160e01b031982166380ac58cd60e01b14806104cb57506001600160e01b03198216635b5e139f60e01b145b806104e657506301ffc9a760e01b6001600160e01b03198316145b92915050565b60605f80546104fa906117aa565b80601f0160208091040260200160405190810160405280929190818152602001828054610526906117aa565b80156105715780601f1061054857610100808354040283529160200191610571565b820191905f5260205f20905b81548152906001019060200180831161055457829003601f168201915b5050505050905090565b5f61058582610afb565b505f828152600460205260409020546001600160a01b03166104e6565b6105ad828233610b33565b5050565b6001600160a01b0382166105df57604051633250574960e11b81525f60048201526024015b60405180910390fd5b5f6105eb838333610b40565b9050836001600160a01b0316816001600160a01b031614610639576040516364283d7b60e01b81526001600160a01b03808616600483015260248201849052821660448201526064016105d6565b50505050565b61065983838360405180602001604052805f81525061094e565b505050565b5f6104e682610afb565b5f6001600160a01b038216610692576040516322718ad960e21b81525f60048201526024016105d6565b506001600160a01b03165f9081526003602052604090205490565b6106b5610ba0565b6106be5f610bcd565b565b6060600180546104fa906117aa565b6105ad338383610c1e565b335f908152600b602052604090205460ff161561070a57604051631bbdf5c560e31b815260040160405180910390fd5b600a5434101561072c5760405162976f7560e21b815260040160405180910390fd5b5f838152600c602052604090205460ff161561075a57604051623f613760e71b815260040160405180910390fd5b6040516bffffffffffffffffffffffff1930606090811b8216602084015233901b166034820152604881018490525f906068016040516020818303038152906040528051906020012090505f6107dc827f19457468657265756d205369676e6564204d6573736167653a0a3332000000005f908152601c91909152603c902090565b90505f61081e8286868080601f0160208091040260200160405190810160405280939291908181526020018383808284375f92019190915250610ce592505050565b6008549091506001600160a01b0380831691161461084f57604051638baa579f60e01b815260040160405180910390fd5b5f868152600c602090815260408083208054600160ff199182168117909255338552600b9093529083208054909216179055600780549082610890836117e2565b9190505590506108a03382610d0d565b3415610919576009546040515f916001600160a01b03169034908381818185875af1925050503d805f81146108f0576040519150601f19603f3d011682016040523d82523d5f602084013e6108f5565b606091505b505090508061091757604051634033e4e360e01b815260040160405180910390fd5b505b604051819033907f30385c845b448a36257a6a1716e6ad2e1bc2cbe333cde1e69fe849ad6511adfe905f90a350505050505050565b6109598484846105b1565b6106393385858585610d26565b606061097182610afb565b5061097b82610e4e565b60405160200161098b9190611806565b6040516020818303038152906040529050919050565b6109a9610ba0565b600880546001600160a01b0319166001600160a01b0383169081179091556040519081527fc636f82352362965af788cd6911d3537ea3a36f47a71c7d403054b07f8e9cc97906020015b60405180910390a150565b610a06610ba0565b600980546001600160a01b0319166001600160a01b0383169081179091556040519081527f7a7b5a0a132f9e0581eb8527f66eae9ee89c2a3e79d4ac7e41a1f1f4d48a7fc2906020016109f3565b6001600160a01b039182165f90815260056020908152604080832093909416825291909152205460ff1690565b610a89610ba0565b600a8190556040518181527f38fbb1c8b109c430f0c030e7ed076cf5611a307773a4e8e365601e8f8bceaec6906020016109f3565b610ac6610ba0565b6001600160a01b038116610aef57604051631e4fbdf760e01b81525f60048201526024016105d6565b610af881610bcd565b50565b5f818152600260205260408120546001600160a01b0316806104e657604051637e27328960e01b8152600481018490526024016105d6565b6106598383836001610ede565b5f828152600260205260408120546001600160a01b03168015801590610b6e57506001600160a01b03851615155b15610b8c57604051638cd22d1960e01b815260040160405180910390fd5b610b97858585610fe2565b95945050505050565b6006546001600160a01b031633146106be5760405163118cdaa760e01b81523360048201526024016105d6565b600680546001600160a01b038381166001600160a01b0319831681179093556040519116919082907f8be0079c531659141344cd1fd0a4f28419497f9722a3daafe3b4186f6b6457e0905f90a35050565b6001600160a01b038316610c475760405163a9fbf51f60e01b81525f60048201526024016105d6565b6001600160a01b038216610c7957604051630b61174360e31b81526001600160a01b03831660048201526024016105d6565b6001600160a01b038381165f81815260056020908152604080832094871680845294825291829020805460ff191686151590811790915591519182527f17307eab39ab6107e8899845ad3d59bd9653f200f220920489ca2b5937696c31910160405180910390a3505050565b5f5f5f5f610cf386866110d4565b925092509250610d03828261111d565b5090949350505050565b6105ad828260405180602001604052805f8152506111d5565b6001600160a01b0383163b15610e4757604051630a85bd0160e11b81526001600160a01b0384169063150b7a0290610d68908890889087908790600401611845565b6020604051808303815f875af1925050508015610da2575060408051601f3d908101601f19168201909252610d9f91810190611881565b60015b610e09573d808015610dcf576040519150601f19603f3d011682016040523d82523d5f602084013e610dd4565b606091505b5080515f03610e0157604051633250574960e11b81526001600160a01b03851660048201526024016105d6565b805160208201fd5b6001600160e01b03198116630a85bd0160e11b14610e4557604051633250574960e11b81526001600160a01b03851660048201526024016105d6565b505b5050505050565b60605f610e5a836111ec565b60010190505f8167ffffffffffffffff811115610e7957610e79611688565b6040519080825280601f01601f191660200182016040528015610ea3576020820181803683370190505b5090508181016020015b5f19016f181899199a1a9b1b9c1cb0b131b232b360811b600a86061a8153600a8504945084610ead57509392505050565b8080610ef257506001600160a01b03821615155b15610fb3575f610f0184610afb565b90506001600160a01b03831615801590610f2d5750826001600160a01b0316816001600160a01b031614155b8015610f405750610f3e8184610a54565b155b15610f695760405163a9fbf51f60e01b81526001600160a01b03841660048201526024016105d6565b8115610fb15783856001600160a01b0316826001600160a01b03167f8c5be1e5ebec7d5bd14f71427d1e84f3dd0314c0f7b2291e5b200ac8c7c3b92560405160405180910390a45b505b50505f90815260046020526040902080546001600160a01b0319166001600160a01b0392909216919091179055565b5f828152600260205260408120546001600160a01b039081169083161561100e5761100e8184866112c3565b6001600160a01b03811615611048576110295f855f5f610ede565b6001600160a01b0381165f90815260036020526040902080545f190190555b6001600160a01b03851615611076576001600160a01b0385165f908152600360205260409020805460010190555b5f8481526002602052604080822080546001600160a01b0319166001600160a01b0389811691821790925591518793918516917fddf252ad1be2c89b69c2b068fc378daa952ba7f163c4a11628f55a4df523b3ef91a4949350505050565b5f5f5f835160410361110b576020840151604085015160608601515f1a6110fd88828585611327565b955095509550505050611116565b505081515f91506002905b9250925092565b5f8260038111156111305761113061189c565b03611139575050565b600182600381111561114d5761114d61189c565b0361116b5760405163f645eedf60e01b815260040160405180910390fd5b600282600381111561117f5761117f61189c565b036111a05760405163fce698f760e01b8152600481018290526024016105d6565b60038260038111156111b4576111b461189c565b036105ad576040516335e2f38360e21b8152600481018290526024016105d6565b6111df83836113ef565b610659335f858585610d26565b5f8072184f03e93ff9f4daa797ed6e38ed64bf6a1f0160401b831061122a5772184f03e93ff9f4daa797ed6e38ed64bf6a1f0160401b830492506040015b6d04ee2d6d415b85acef81000000008310611256576d04ee2d6d415b85acef8100000000830492506020015b662386f26fc10000831061127457662386f26fc10000830492506010015b6305f5e100831061128c576305f5e100830492506008015b61271083106112a057612710830492506004015b606483106112b2576064830492506002015b600a83106104e65760010192915050565b6112ce838383611450565b610659576001600160a01b0383166112fc57604051637e27328960e01b8152600481018290526024016105d6565b60405163177e802f60e01b81526001600160a01b0383166004820152602481018290526044016105d6565b5f80807f7fffffffffffffffffffffffffffffff5d576e7357a4501ddfe92f46681b20a084111561136057505f915060039050826113e5565b604080515f808252602082018084528a905260ff891692820192909252606081018790526080810186905260019060a0016020604051602081039080840390855afa1580156113b1573d5f5f3e3d5ffd5b5050604051601f1901519150506001600160a01b0381166113dc57505f9250600191508290506113e5565b92505f91508190505b9450945094915050565b6001600160a01b03821661141857604051633250574960e11b81525f60048201526024016105d6565b5f61142483835f610b40565b90506001600160a01b03811615610659576040516339e3563760e11b81525f60048201526024016105d6565b5f6001600160a01b038316158015906114ac5750826001600160a01b0316846001600160a01b0316148061148957506114898484610a54565b806114ac57505f828152600460205260409020546001600160a01b038481169116145b949350505050565b6001600160e01b031981168114610af8575f5ffd5b5f602082840312156114d9575f5ffd5b81356114e4816114b4565b9392505050565b5f81518084528060208401602086015e5f602082860101526020601f19601f83011685010191505092915050565b602081525f6114e460208301846114eb565b5f6020828403121561153b575f5ffd5b5035919050565b80356001600160a01b0381168114611558575f5ffd5b919050565b5f5f6040838503121561156e575f5ffd5b61157783611542565b946020939093013593505050565b5f5f5f60608486031215611597575f5ffd5b6115a084611542565b92506115ae60208501611542565b929592945050506040919091013590565b5f602082840312156115cf575f5ffd5b6114e482611542565b5f5f604083850312156115e9575f5ffd5b6115f283611542565b915060208301358015158114611606575f5ffd5b809150509250929050565b5f5f5f60408486031215611623575f5ffd5b83359250602084013567ffffffffffffffff811115611640575f5ffd5b8401601f81018613611650575f5ffd5b803567ffffffffffffffff811115611666575f5ffd5b866020828401011115611677575f5ffd5b939660209190910195509293505050565b634e487b7160e01b5f52604160045260245ffd5b5f5f5f5f608085870312156116af575f5ffd5b6116b885611542565b93506116c660208601611542565b925060408501359150606085013567ffffffffffffffff8111156116e8575f5ffd5b8501601f810187136116f8575f5ffd5b803567ffffffffffffffff81111561171257611712611688565b604051601f8201601f19908116603f0116810167ffffffffffffffff8111828210171561174157611741611688565b604052818152828201602001891015611758575f5ffd5b816020840160208301375f6020838301015280935050505092959194509250565b5f5f6040838503121561178a575f5ffd5b61179383611542565b91506117a160208401611542565b90509250929050565b600181811c908216806117be57607f821691505b6020821081036117dc57634e487b7160e01b5f52602260045260245ffd5b50919050565b5f600182016117ff57634e487b7160e01b5f52601160045260245ffd5b5060010190565b7f68747470733a2f2f6b6975742e78797a2f6e66742f6d657461646174612f000081525f82518060208501601e85015e5f9201601e0191825250919050565b6001600160a01b03858116825284166020820152604081018390526080606082018190525f90611877908301846114eb565b9695505050505050565b5f60208284031215611891575f5ffd5b81516114e4816114b4565b634e487b7160e01b5f52602160045260245ffdfea264697066735822122057ad56a514a4ec7a3e0e5aadc772f53d12b6ea8771e0f9cb53376ce930cd42ef64736f6c634300081c0033",
  "linkReferences": {},
  "deployedLinkReferences": {}
}