{
  "_format": "hh-sol-artifact-1",
  "contractName": "KiutSoulbound",
  "sourceName": "contracts/KiutSoulbound.sol",
  "abi": [
    {
      "inputs": [
        {
          "internalType": "address",
          "name": "_minterSigner",
          "type": "address"
        },
        {
          "internalType": "address",
          "name": "_feeRecipient",
          "type": "address"
        },
        {
          "internalType": "uint256",
          "name": "_mintFee",
          "type": "uint256"
        }
      ],
      "stateMutability": "nonpayable",
      "type": "constructor"
    },
    {
      "inputs": [],
      "name": "AlreadyMinted",
      "type": "error"
    },
    {
      "inputs": [],
      "name": "ECDSAInvalidSignature",
      "type": "error"
    },
    {
      "inputs": [
        {
          "internalType": "uint256",
          "name": "length",
          "type": "uint256"
        }
      ],
      "name": "ECDSAInvalidSignatureLength",
      "type": "error"
    },
    {
      "inputs": [
        {
          "internalType": "bytes32",
          "name": "s",
          "type": "bytes32"
        }
      ],
      "name": "ECDSAInvalidSignatureS",
      "type": "error"
    },
    {
      "inputs": [
        {
          "internalType": "address",
          "name": "sender",
          "type": "address"
        },
        {
          "internalType": "uint256",
          "name": "tokenId",
          "type": "uint256"
        },
        {
          "internalType": "address",
          "name": "owner",
          "type": "address"
        }
      ],
      "name": "ERC721IncorrectOwner",
      "type": "error"
    },
    {
      "inputs": [
        {
          "internalType": "address",
          "name": "operator",
          "type": "address"
        },
        {
          "internalType": "uint256",
          "name": "tokenId",
          "type": "uint256"
        }
      ],
      "name": "ERC721InsufficientApproval",
      "type": "error"
    },
    {
      "inputs": [
        {
          "internalType": "address",
          "name": "approver",
          "type": "address"
        }
      ],
      "name": "ERC721InvalidApprover",
      "type": "error"
    },
    {
      "inputs": [
        {
          "internalType": "address",
          "name": "operator",
          "type": "address"
        }
      ],
      "name": "ERC721InvalidOperator",
      "type": "error"
    },
    {
      "inputs": [
        {
          "internalType": "address",
          "name": "owner",
          "type": "address"
        }
      ],
      "name": "ERC721InvalidOwner",
      "type": "error"
    },
    {
      "inputs": [
        {
          "internalType": "address",
          "name": "receiver",
          "type": "address"
        }
      ],
      "name": "ERC721InvalidReceiver",
      "type": "error"
    },
    {
      "inputs": [
        {
          "internalType": "address",
          "name": "sender",
          "type": "address"
        }
      ],
      "name": "ERC721InvalidSender",
      "type": "error"
    },
    {
      "inputs": [
        {
          "internalType": "uint256",
          "name": "tokenId",
          "type": "uint256"
        }
      ],
      "name": "ERC721NonexistentToken",
      "type": "error"
    },
    {
      "inputs": [],
      "name": "FeeTransferFailed",
      "type": "error"
    },
    {
      "inputs": [],
      "name": "InsufficientFee",
      "type": "error"
    },
    {
      "inputs": [],
      "name": "InvalidSignature",
      "type": "error"
    },
    {
      "inputs": [
        {
          "internalType": "address",
          "name": "owner",
          "type": "address"
        }
      ],
      "name": "OwnableInvalidOwner",
      "type": "error"
    },
    {
      "inputs": [
        {
          "internalType": "address",
          "name": "account",
          "type": "address"
        }
      ],
      "name": "OwnableUnauthorizedAccount",
      "type": "error"
    },
    {
      "inputs": [],
      "name": "TransferNotAllowed",
      "type": "error"
    },
    {
      "anonymous": false,
      "inputs": [
        {
          "indexed": true,
          "internalType": "address",
          "name": "owner",
          "type": "address"
        },
        {
          "indexed": true,
          "internalType": "address",
          "name": "approved",
          "type": "address"
        },
        {
          "indexed": true,
          "internalType": "uint256",
          "name": "tokenId",
          "type": "uint256"
        }
      ],
      "name": "Approval",
      "type": "event"
    },
    {
      "anonymous": false,
      "inputs": [
        {
          "indexed": true,
          "internalType": "address",
          "name": "owner",
          "type": "address"
        },
        {
          "indexed": true,
          "internalType": "address",
          "name": "operator",
          "type": "address"
        },
        {
          "indexed": false,
          "internalType": "bool",
          "name": "approved",
          "type": "bool"
        }
      ],
      "name": "ApprovalForAll",
      "type": "event"
    },
    {
      "anonymous": false,
      "inputs": [
        {
          "indexed": false,
          "internalType": "address",
          "name": "newRecipient",
          "type": "address"
        }
      ],
      "name": "FeeRecipientUpdated",
      "type": "event"
    },
    {
      "anonymous": false,
      "inputs": [
        {
          "indexed": false,
          "internalType": "uint256",
          "name": "newFee",
          "type": "uint256"
        }
      ],
      "name": "MintFeeUpdated",
      "type": "event"
    },
    {
      "anonymous": false,
      "inputs": [
        {
          "indexed": true,
          "internalType": "address",
          "name": "to",
          "type": "address"
        },
        {
          "indexed": true,
          "internalType": "uint256",
          "name": "tokenId",
          "type": "uint256"
        }
      ],
      "name": "Minted",
      "type": "event"
    },
    {
      "anonymous": false,
      "inputs": [
        {
          "indexed": false,
          "internalType": "address",
          "name": "newSigner",
          "type": "address"
        }
      ],
      "name": "MinterSignerUpdated",
      "type": "event"
    },
    {
      "anonymous": false,
      "inputs": [
        {
          "indexed": true,
          "internalType": "address",
          "name": "previousOwner",
          "type": "address"
        },
        {
          "indexed": true,
          "internalType": "address",
          "name": "newOwner",
          "type": "address"
        }
      ],
      "name": "OwnershipTransferred",
      "type": "event"
    },
    {
      "anonymous": false,
      "inputs": [
        {
          "indexed": true,
          "internalType": "address",
          "name": "from",
          "type": "address"
        },
        {
          "indexed": true,
          "internalType": "address",
          "name": "to",
          "type": "address"
        },
        {
          "indexed": true,
          "internalType": "uint256",
          "name": "tokenId",
          "type": "uint256"
        }
      ],
      "name": "Transfer",
      "type": "event"
    },
    {
      "inputs": [
        {
          "internalType": "address",
          "name": "to",
          "type": "address"
        },
        {
          "internalType": "uint256",
          "name": "tokenId",
          "type": "uint256"
        }
      ],
      "name": "approve",
      "outputs": [],
      "stateMutability": "nonpayable",
      "type": "function"
    },
    {
      "inputs": [
        {
          "internalType": "address",
          "name": "owner",
          "type": "address"
        }
      ],
      "name": "balanceOf",
      "outputs": [
        {
          "internalType": "uint256",
          "name": "",
          "type": "uint256"
        }
      ],
      "stateMutability": "view",
      "type": "function"
    },
    {
      "inputs": [],
      "name": "feeRecipient",
      "outputs": [
        {
          "internalType": "address",
          "name": "",
          "type": "address"
        }
      ],
      "stateMutability": "view",
      "type": "function"
    },
    {
      "inputs": [
        {
          "internalType": "uint256",
          "name": "tokenId",
          "type": "uint256"
        }
      ],
      "name": "getApproved",
      "outputs": [
        {
          "internalType": "address",
          "name": "",
          "type": "address"
        }
      ],
      "stateMutability": "view",
      "type": "function"
    },
    {
      "inputs": [
        {
          "internalType": "address",
          "name": "",
          "type": "address"
        }
      ],
      "name": "hasMinted",
      "outputs": [
        {
          "internalType": "bool",
          "name": "",
          "type": "bool"
        }
      ],
      "stateMutability": "view",
      "type": "function"
    },
    {
      "inputs": [
        {
          "internalType": "address",
          "name": "owner",
          "type": "address"
        },
        {
          "internalType": "address",
          "name": "operator",
          "type": "address"
        }
      ],
      "name": "isApprovedForAll",
      "outputs": [
        {
          "internalType": "bool",
          "name": "",
          "type": "bool"
        }
      ],
      "stateMutability": "view",
      "type": "function"
    },
    {
      "inputs": [
        {
          "internalType": "bytes",
          "name": "signature",
          "type": "bytes"
        }
      ],
      "name": "mint",
      "outputs": [],
      "stateMutability": "payable",
      "type": "function"
    },
    {
      "inputs": [],
      "name": "mintFee",
      "outputs": [
        {
          "internalType": "uint256",
          "name": "",
          "type": "uint256"
        }
      ],
      "stateMutability": "view",
      "type": "function"
    },
    {
      "inputs": [],
      "name": "minterSigner",
      "outputs": [
        {
          "internalType": "address",
          "name": "",
          "type": "address"
        }
      ],
      "stateMutability": "view",
      "type": "function"
    },
    {
      "inputs": [],
      "name": "name",
      "outputs": [
        {
          "internalType": "string",
          "name": "",
          "type": "string"
        }
      ],
      "stateMutability": "view",
      "type": "function"
    },
    {
      "inputs": [],
      "name": "owner",
      "outputs": [
        {
          "internalType": "address",
          "name": "",
          "type": "address"
        }
      ],
      "stateMutability": "view",
      "type": "function"
    },
    {
      "inputs": [
        {
          "internalType": "uint256",
          "name": "tokenId",
          "type": "uint256"
        }
      ],
      "name": "ownerOf",
      "outputs": [
        {
          "internalType": "address",
          "name": "",
          "type": "address"
        }
      ],
      "stateMutability": "view",
      "type": "function"
    },
    {
      "inputs": [],
      "name": "renounceOwnership",
      "outputs": [],
      "stateMutability": "nonpayable",
      "type": "function"
    },
    {
      "inputs": [
        {
          "internalType": "address",
          "name": "from",
          "type": "address"
        },
        {
          "internalType": "address",
          "name": "to",
          "type": "address"
        },
        {
          "internalType": "uint256",
          "name": "tokenId",
          "type": "uint256"
        }
      ],
      "name": "safeTransferFrom",
      "outputs": [],
      "stateMutability": "nonpayable",
      "type": "function"
    },
    {
      "inputs": [
        {
          "internalType": "address",
          "name": "from",
          "type": "address"
        },
        {
          "internalType": "address",
          "name": "to",
          "type": "address"
        },
        {
          "internalType": "uint256",
          "name": "tokenId",
          "type": "uint256"
        },
        {
          "internalType": "bytes",
          "name": "data",
          "type": "bytes"
        }
      ],
      "name": "safeTransferFrom",
      "outputs": [],
      "stateMutability": "nonpayable",
      "type": "function"
    },
    {
      "inputs": [
        {
          "internalType": "address",
          "name": "operator",
          "type": "address"
        },
        {
          "internalType": "bool",
          "name": "approved",
          "type": "bool"
        }
      ],
      "name": "setApprovalForAll",
      "outputs": [],
      "stateMutability": "nonpayable",
      "type": "function"
    },
    {
      "inputs": [
        {
          "internalType": "address",
          "name": "_feeRecipient",
          "type": "address"
        }
      ],
      "name": "setFeeRecipient",
      "outputs": [],
      "stateMutability": "nonpayable",
      "type": "function"
    },
    {
      "inputs": [
        {
          "internalType": "uint256",
          "name": "_mintFee",
          "type": "uint256"
        }
      ],
      "name": "setMintFee",
      "outputs": [],
      "stateMutability": "nonpayable",
      "type": "function"
    },
    {
      "inputs": [
        {
          "internalType": "address",
          "name": "_minterSigner",
          "type": "address"
        }
      ],
      "name": "setMinterSigner",
      "outputs": [],
      "stateMutability": "nonpayable",
      "type": "function"
    },
    {
      "inputs": [
        {
          "internalType": "bytes4",
          "name": "interfaceId",
          "type": "bytes4"
        }
      ],
      "name": "supportsInterface",
      "outputs": [
        {
          "internalType": "bool",
          "name": "",
          "type": "bool"
        }
      ],
      "stateMutability": "view",
      "type": "function"
    },
    {
      "inputs": [],
      "name": "symbol",
      "outputs": [
        {
          "internalType": "string",
          "name": "",
          "type": "string"
        }
      ],
      "stateMutability": "view",
      "type": "function"
    },
    {
      "inputs": [
        {
          "internalType": "uint256",
          "name": "tokenId",
          "type": "uint256"
        }
      ],
      "name": "tokenURI",
      "outputs": [
        {
          "internalType": "string",
          "name": "",
          "type": "string"
        }
      ],
      "stateMutability": "view",
      "type": "function"
    },
    {
      "inputs": [
        {
          "internalType": "address",
          "name": "from",
          "type": "address"
        },
        {
          "internalType": "address",
          "name": "to",
          "type": "address"
        },
        {
          "internalType": "uint256",
          "name": "tokenId",
          "type": "uint256"
        }
      ],
      "name": "transferFrom",
      "outputs": [],
      "stateMutability": "nonpayable",
      "type": "function"
    },
    {
      "inputs": [
        {
          "internalType": "address",
          "name": "newOwner",
          "type": "address"
        }
      ],
      "name": "transferOwnership",
      "outputs": [],
      "stateMutability": "nonpayable",
      "type": "function"
    }
  ],
  "bytecode": "0x60806040526001600755348015610014575f5ffd5b50604051611b5e380380611b5e83398101604081905261003391610180565b336040518060400160405280601481526020017f4b49555420536f756c626f756e6420546f6b656e0000000000000000000000008152506040518060400160405280600481526020016312d2555560e21b815250815f90816100959190610251565b5060016100a28282610251565b5050506001600160a01b0381166100d257604051631e4fbdf760e01b81525f600482015260240160405180910390fd5b6100db81610114565b50600880546001600160a01b039485166001600160a01b0319918216179091556009805493909416921691909117909155600a5561030b565b600680546001600160a01b038381166001600160a01b0319831681179093556040519116919082907f8be0079c531659141344cd1fd0a4f28419497f9722a3daafe3b4186f6b6457e0905f90a35050565b80516001600160a01b038116811461017b575f5ffd5b919050565b5f5f5f60608486031215610192575f5ffd5b61019b84610165565b92506101a960208501610165565b9150604084015190509250925092565b634e487b7160e01b5f52604160045260245ffd5b600181811c908216806101e157607f821691505b6020821081036101ff57634e487b7160e01b5f52602260045260245ffd5b50919050565b601f82111561024c57805f5260205f20601f840160051c8101602085101561022a5750805b601f840160051c820191505b81811015610249575f8155600101610236565b50505b505050565b81516001600160401b0381111561026a5761026a6101b9565b61027e8161027884546101cd565b84610205565b6020601f8211600181146102b0575f83156102995750848201515b5f19600385901b1c1916600184901b178455610249565b5f84815260208120601f198516915b828110156102df57878501518255602094850194600190920191016102bf565b50848210156102fc57868401515f19600387901b60f8161c191681555b50505050600190811b01905550565b611846806103185f395ff3fe608060405260043610610147575f3560e01c8063715018a6116100b3578063c87b56dd1161006d578063c87b56dd14610399578063dd99af19146103b8578063e74b981b146103d7578063e985e9c5146103f6578063eddd0d9c14610415578063f2fde38b14610434575f5ffd5b8063715018a6146103035780637ba0e2e7146103175780638da5cb5b1461032a57806395d89b4114610347578063a22cb4651461035b578063b88d4fde1461037a575f5ffd5b806338e21cce1161010457806338e21cce1461023a57806342842e0e1461026857806346904840146102875780634baa7356146102a65780636352211e146102c557806370a08231146102e4575f5ffd5b806301ffc9a71461014b57806306fdde031461017f578063081812fc146101a0578063095ea7b3146101d757806313966db5146101f857806323b872dd1461021b575b5f5ffd5b348015610156575f5ffd5b5061016a610165366004611432565b610453565b60405190151581526020015b60405180910390f35b34801561018a575f5ffd5b506101936104a4565b6040516101769190611482565b3480156101ab575f5ffd5b506101bf6101ba366004611494565b610533565b6040516001600160a01b039091168152602001610176565b3480156101e2575f5ffd5b506101f66101f13660046114c6565b61055a565b005b348015610203575f5ffd5b5061020d600a5481565b604051908152602001610176565b348015610226575f5ffd5b506101f66102353660046114ee565b610569565b348015610245575f5ffd5b5061016a610254366004611528565b600b6020525f908152604090205460ff1681565b348015610273575f5ffd5b506101f66102823660046114ee565b6105f7565b348015610292575f5ffd5b506009546101bf906001600160a01b031681565b3480156102b1575f5ffd5b506008546101bf906001600160a01b031681565b3480156102d0575f5ffd5b506101bf6102df366004611494565b610616565b3480156102ef575f5ffd5b5061020d6102fe366004611528565b610620565b34801561030e575f5ffd5b506101f6610665565b6101f6610325366004611541565b610678565b348015610335575f5ffd5b506006546001600160a01b03166101bf565b348015610352575f5ffd5b5061019361089d565b348015610366575f5ffd5b506101f66103753660046115af565b6108ac565b348015610385575f5ffd5b506101f66103943660046115fc565b6108b7565b3480156103a4575f5ffd5b506101936103b3366004611494565b6108cf565b3480156103c3575f5ffd5b506101f66103d2366004611528565b61090a565b3480156103e2575f5ffd5b506101f66103f1366004611528565b610967565b348015610401575f5ffd5b5061016a6104103660046116d9565b6109bd565b348015610420575f5ffd5b506101f661042f366004611494565b6109ea565b34801561043f575f5ffd5b506101f661044e366004611528565b610a27565b5f6001600160e01b031982166380ac58cd60e01b148061048357506001600160e01b03198216635b5e139f60e01b145b8061049e57506301ffc9a760e01b6001600160e01b03198316145b92915050565b60605f80546104b29061170a565b80601f01602080910402602001604051908101604052809291908181526020018280546104de9061170a565b80156105295780601f1061050057610100808354040283529160200191610529565b820191905f5260205f20905b81548152906001019060200180831161050c57829003601f168201915b5050505050905090565b5f61053d82610a64565b505f828152600460205260409020546001600160a01b031661049e565b610565828233610a9c565b5050565b6001600160a01b03821661059757604051633250574960e11b81525f60048201526024015b60405180910390fd5b5f6105a3838333610aa9565b9050836001600160a01b0316816001600160a01b0316146105f1576040516364283d7b60e01b81526001600160a01b038086166004830152602482018490528216604482015260640161058e565b50505050565b61061183838360405180602001604052805f8152506108b7565b505050565b5f61049e82610a64565b5f6001600160a01b03821661064a576040516322718ad960e21b81525f600482015260240161058e565b506001600160a01b03165f9081526003602052604090205490565b61066d610b09565b6106765f610b36565b565b335f908152600b602052604090205460ff16156106a857604051631bbdf5c560e31b815260040160405180910390fd5b600a543410156106ca5760405162976f7560e21b815260040160405180910390fd5b6040516bffffffffffffffffffffffff1930606090811b8216602084015233901b1660348201525f906048016040516020818303038152906040528051906020012090505f610745827f19457468657265756d205369676e6564204d6573736167653a0a3332000000005f908152601c91909152603c902090565b90505f6107878286868080601f0160208091040260200160405190810160405280939291908181526020018383808284375f92019190915250610b8792505050565b6008549091506001600160a01b038083169116146107b857604051638baa579f60e01b815260040160405180910390fd5b335f908152600b60205260408120805460ff191660011790556007805490826107e083611742565b9190505590506107f03382610baf565b3415610869576009546040515f916001600160a01b03169034908381818185875af1925050503d805f8114610840576040519150601f19603f3d011682016040523d82523d5f602084013e610845565b606091505b505090508061086757604051634033e4e360e01b815260040160405180910390fd5b505b604051819033907f30385c845b448a36257a6a1716e6ad2e1bc2cbe333cde1e69fe849ad6511adfe905f90a3505050505050565b6060600180546104b29061170a565b610565338383610bc8565b6108c2848484610569565b6105f13385858585610c8f565b60606108da82610a64565b506108e482610db7565b6040516020016108f49190611766565b6040516020818303038152906040529050919050565b610912610b09565b600880546001600160a01b0319166001600160a01b0383169081179091556040519081527fc636f82352362965af788cd6911d3537ea3a36f47a71c7d403054b07f8e9cc97906020015b60405180910390a150565b61096f610b09565b600980546001600160a01b0319166001600160a01b0383169081179091556040519081527f7a7b5a0a132f9e0581eb8527f66eae9ee89c2a3e79d4ac7e41a1f1f4d48a7fc29060200161095c565b6001600160a01b039182165f90815260056020908152604080832093909416825291909152205460ff1690565b6109f2610b09565b600a8190556040518181527f38fbb1c8b109c430f0c030e7ed076cf5611a307773a4e8e365601e8f8bceaec69060200161095c565b610a2f610b09565b6001600160a01b038116610a5857604051631e4fbdf760e01b81525f600482015260240161058e565b610a6181610b36565b50565b5f818152600260205260408120546001600160a01b03168061049e57604051637e27328960e01b81526004810184905260240161058e565b6106118383836001610e47565b5f828152600260205260408120546001600160a01b03168015801590610ad757506001600160a01b03851615155b15610af557604051638cd22d1960e01b815260040160405180910390fd5b610b00858585610f4b565b95945050505050565b6006546001600160a01b031633146106765760405163118cdaa760e01b815233600482015260240161058e565b600680546001600160a01b038381166001600160a01b0319831681179093556040519116919082907f8be0079c531659141344cd1fd0a4f28419497f9722a3daafe3b4186f6b6457e0905f90a35050565b5f5f5f5f610b95868661103d565b925092509250610ba58282611086565b5090949350505050565b610565828260405180602001604052805f81525061113e565b6001600160a01b038316610bf15760405163a9fbf51f60e01b81525f600482015260240161058e565b6001600160a01b038216610c2357604051630b61174360e31b81526001600160a01b038316600482015260240161058e565b6001600160a01b038381165f81815260056020908152604080832094871680845294825291829020805460ff191686151590811790915591519182527f17307eab39ab6107e8899845ad3d59bd9653f200f220920489ca2b5937696c31910160405180910390a3505050565b6001600160a01b0383163b15610db057604051630a85bd0160e11b81526001600160a01b0384169063150b7a0290610cd19088908890879087906004016117a5565b6020604051808303815f875af1925050508015610d0b575060408051601f3d908101601f19168201909252610d08918101906117e1565b60015b610d72573d808015610d38576040519150601f19603f3d011682016040523d82523d5f602084013e610d3d565b606091505b5080515f03610d6a57604051633250574960e11b81526001600160a01b038516600482015260240161058e565b805160208201fd5b6001600160e01b03198116630a85bd0160e11b14610dae57604051633250574960e11b81526001600160a01b038516600482015260240161058e565b505b5050505050565b60605f610dc383611155565b60010190505f8167ffffffffffffffff811115610de257610de26115e8565b6040519080825280601f01601f191660200182016040528015610e0c576020820181803683370190505b5090508181016020015b5f19016f181899199a1a9b1b9c1cb0b131b232b360811b600a86061a8153600a8504945084610e1657509392505050565b8080610e5b57506001600160a01b03821615155b15610f1c575f610e6a84610a64565b90506001600160a01b03831615801590610e965750826001600160a01b0316816001600160a01b031614155b8015610ea95750610ea781846109bd565b155b15610ed25760405163a9fbf51f60e01b81526001600160a01b038416600482015260240161058e565b8115610f1a5783856001600160a01b0316826001600160a01b03167f8c5be1e5ebec7d5bd14f71427d1e84f3dd0314c0f7b2291e5b200ac8c7c3b92560405160405180910390a45b505b50505f90815260046020526040902080546001600160a01b0319166001600160a01b0392909216919091179055565b5f828152600260205260408120546001600160a01b0390811690831615610f7757610f7781848661122c565b6001600160a01b03811615610fb157610f925f855f5f610e47565b6001600160a01b0381165f90815260036020526040902080545f190190555b6001600160a01b03851615610fdf576001600160a01b0385165f908152600360205260409020805460010190555b5f8481526002602052604080822080546001600160a01b0319166001600160a01b0389811691821790925591518793918516917fddf252ad1be2c89b69c2b068fc378daa952ba7f163c4a11628f55a4df523b3ef91a4949350505050565b5f5f5f8351604103611074576020840151604085015160608601515f1a61106688828585611290565b95509550955050505061107f565b505081515f91506002905b9250925092565b5f826003811115611099576110996117fc565b036110a2575050565b60018260038111156110b6576110b66117fc565b036110d45760405163f645eedf60e01b815260040160405180910390fd5b60028260038111156110e8576110e86117fc565b036111095760405163fce698f760e01b81526004810182905260240161058e565b600382600381111561111d5761111d6117fc565b03610565576040516335e2f38360e21b81526004810182905260240161058e565b6111488383611358565b610611335f858585610c8f565b5f8072184f03e93ff9f4daa797ed6e38ed64bf6a1f0160401b83106111935772184f03e93ff9f4daa797ed6e38ed64bf6a1f0160401b830492506040015b6d04ee2d6d415b85acef810000000083106111bf576d04ee2d6d415b85acef8100000000830492506020015b662386f26fc1000083106111dd57662386f26fc10000830492506010015b6305f5e10083106111f5576305f5e100830492506008015b612710831061120957612710830492506004015b6064831061121b576064830492506002015b600a831061049e5760010192915050565b6112378383836113b9565b610611576001600160a01b03831661126557604051637e27328960e01b81526004810182905260240161058e565b60405163177e802f60e01b81526001600160a01b03831660048201526024810182905260440161058e565b5f80807f7fffffffffffffffffffffffffffffff5d576e7357a4501ddfe92f46681b20a08411156112c957505f9150600390508261134e565b604080515f808252602082018084528a905260ff891692820192909252606081018790526080810186905260019060a0016020604051602081039080840390855afa15801561131a573d5f5f3e3d5ffd5b5050604051601f1901519150506001600160a01b03811661134557505f92506001915082905061134e565b92505f91508190505b9450945094915050565b6001600160a01b03821661138157604051633250574960e11b81525f600482015260240161058e565b5f61138d83835f610aa9565b90506001600160a01b03811615610611576040516339e3563760e11b81525f600482015260240161058e565b5f6001600160a01b038316158015906114155750826001600160a01b0316846001600160a01b031614806113f257506113f284846109bd565b8061141557505f828152600460205260409020546001600160a01b038481169116145b949350505050565b6001600160e01b031981168114610a61575f5ffd5b5f60208284031215611442575f5ffd5b813561144d8161141d565b9392505050565b5f81518084528060208401602086015e5f602082860101526020601f19601f83011685010191505092915050565b602081525f61144d6020830184611454565b5f602082840312156114a4575f5ffd5b5035919050565b80356001600160a01b03811681146114c1575f5ffd5b919050565b5f5f604083850312156114d7575f5ffd5b6114e0836114ab565b946020939093013593505050565b5f5f5f60608486031215611500575f5ffd5b611509846114ab565b9250611517602085016114ab565b929592945050506040919091013590565b5f60208284031215611538575f5ffd5b61144d826114ab565b5f5f60208385031215611552575f5ffd5b823567ffffffffffffffff811115611568575f5ffd5b8301601f81018513611578575f5ffd5b803567ffffffffffffffff81111561158e575f5ffd5b85602082840101111561159f575f5ffd5b6020919091019590945092505050565b5f5f604083850312156115c0575f5ffd5b6115c9836114ab565b9150602083013580151581146115dd575f5ffd5b809150509250929050565b634e487b7160e01b5f52604160045260245ffd5b5f5f5f5f6080858703121561160f575f5ffd5b611618856114ab565b9350611626602086016114ab565b925060408501359150606085013567ffffffffffffffff811115611648575f5ffd5b8501601f81018713611658575f5ffd5b803567ffffffffffffffff811115611672576116726115e8565b604051601f8201601f19908116603f0116810167ffffffffffffffff811182821017156116a1576116a16115e8565b6040528181528282016020018910156116b8575f5ffd5b816020840160208301375f6020838301015280935050505092959194509250565b5f5f604083850312156116ea575f5ffd5b6116f3836114ab565b9150611701602084016114ab565b90509250929050565b600181811c9082168061171e57607f821691505b60208210810361173c57634e487b7160e01b5f52602260045260245ffd5b50919050565b5f6001820161175f57634e487b7160e01b5f52601160045260245ffd5b5060010190565b7f68747470733a2f2f6b6975742e78797a2f6e66742f6d657461646174612f000081525f82518060208501601e85015e5f9201601e0191825250919050565b6001600160a01b03858116825284166020820152604081018390526080606082018190525f906117d790830184611454565b9695505050505050565b5f602082840312156117f1575f5ffd5b815161144d8161141d565b634e487b7160e01b5f52602160045260245ffdfea2646970667358221220ca08f216dcd61a73748f521f6a75fd234c6741578e3f2788472ca27dc7e4b04f64736f6c634300081c0033",
  "linkReferences": {},
  "deployedLinkReferences": {}
}